{
  "transactions": [
    {
      "hash": "0xeb97d08d14cb777899e65ab1f8a802c1e610d93f1cd6b5e4276564ea3dadefe8",
      "transactionType": "CALL",
      "contractName": null,
      "contractAddress": "0xf66ba6b038fbf88ecd004cebf2c1d4598dacfc45",
      "function": "createCampaign(uint256,uint64,address)",
      "arguments": [
        "500000000000000000",
        "259200",
        "0x0000000000000000000000000000000000000000"
      ],
      "transaction": {
        "from": "0xf8a8f8bb42c680fd5c1eed2d1c5d638e2c4f4b78",
        "to": "0xf66ba6b038fbf88ecd004cebf2c1d4598dacfc45",
        "gas": "0x2b4a2",
        "value": "0x0",
        "input": "0x8675bc8900000000000000000000000000000000000000000000000006f05b59d3b20000000000000000000000000000000000000000000000000000000000000003f4800000000000000000000000000000000000000000000000000000000000000000",
        "nonce": "0x7",
        "chainId": "0xaa36a7"
      },
      "additionalContracts": [],
      "isFixedGasLimit": false
    },
    {
      "hash": "0x79e50119a4fb974d8e7278811b86b35923b2e739c6a05e8ec47140ae6d006ec6",
      "transactionType": "CALL",
      "contractName": null,
      "contractAddress": "0xf66ba6b038fbf88ecd004cebf2c1d4598dacfc45",
      "function": "contributeETH(uint256)",
      "arguments": [
        "0"
      ],
      "transaction": {
        "from": "0xf8a8f8bb42c680fd5c1eed2d1c5d638e2c4f4b78",
        "to": "0xf66ba6b038fbf88ecd004cebf2c1d4598dacfc45",
        "gas": "0x2d354",
        "value": "0x2342acc4526ebd",
        "input": "0xb3962bdc0000000000000000000000000000000000000000000000000000000000000000",
        "nonce": "0x8",
        "chainId": "0xaa36a7"
      },
      "additionalContracts": [],
      "isFixedGasLimit": false
    }
  ],
  "receipts": [
    {
      "status": "0x1",
      "cumulativeGasUsed": "0x15fb31f",
      "logs": [
        {
          "address": "0xf66ba6b038fbf88ecd004cebf2c1d4598dacfc45",
          "topics": [
            "0x571020fe4efe6221bc7ae8dfbe3535fb7218747e8f842ff1452afe58080be684",
            "0x0000000000000000000000000000000000000000000000000000000000000000",
            "0x000000000000000000000000f8a8f8bb42c680fd5c1eed2d1c5d638e2c4f4b78",
            "0x0000000000000000000000000000000000000000000000000000000000000000"
          ],
          "data": "0x00000000000000000000000000000000000000000000000006f05b59d3b200000000000000000000000000000000000000000000000000000000000068b006f8",
          "blockHash": "0xf3a4b5e154284f5a6678cd11b7ef244f6bc875833abd178208b258c56f069308",
          "blockNumber": "0x8a3bad",
          "transactionHash": "0xeb97d08d14cb777899e65ab1f8a802c1e610d93f1cd6b5e4276564ea3dadefe8",
          "transactionIndex": "0x9f",
          "logIndex": "0x19f",
          "removed": false
        }
      ],
      "logsBloom": "0x02000000000000000000000000000000000000000000000000000000000000000000000000000000000000000000000000000000000000000000000000000000000000000000000000000000000000000000000000000100002000000000000000000000020000000000000000000800000000000000000000000000000000000000000000000000000000000000000000000000000000000000000000000000000000000000000004000000000000000000000000000000000000000000000000000000000000080400000000000000000000000000000000010000000020000000000000000000000000000000000000020000020000000000000000000000",
      "type": "0x2",
      "transactionHash": "0xeb97d08d14cb777899e65ab1f8a802c1e610d93f1cd6b5e4276564ea3dadefe8",
      "transactionIndex": "0x9f",
      "blockHash": "0xf3a4b5e154284f5a6678cd11b7ef244f6bc875833abd178208b258c56f069308",
      "blockNumber": "0x8a3bad",
      "gasUsed": "0x1d999",
      "effectiveGasPrice": "0xdf5b99f",
      "from": "0xf8a8f8bb42c680fd5c1eed2d1c5d638e2c4f4b78",
      "to": "0xf66ba6b038fbf88ecd004cebf2c1d4598dacfc45",
      "contractAddress": null
    },
    {
      "status": "0x1",
      "cumulativeGasUsed": "0x161becd",
      "logs": [
        {
          "address": "0xf66ba6b038fbf88ecd004cebf2c1d4598dacfc45",
          "topics": [
            "0xe6c3020423d67e3751749d9139aa259440cd94647707ead5b7795523604bd6ca",
            "0x0000000000000000000000000000000000000000000000000000000000000000",
            "0x000000000000000000000000f8a8f8bb42c680fd5c1eed2d1c5d638e2c4f4b78",
            "0x0000000000000000000000000000000000000000000000000000000000000000"
          ],
          "data": "0x000000000000000000000000000000000000000000000000002342acc4526ebd",
          "blockHash": "0xf3a4b5e154284f5a6678cd11b7ef244f6bc875833abd178208b258c56f069308",
          "blockNumber": "0x8a3bad",
          "transactionHash": "0x79e50119a4fb974d8e7278811b86b35923b2e739c6a05e8ec47140ae6d006ec6",
          "transactionIndex": "0xa0",
          "logIndex": "0x1a0",
          "removed": false
        },
        {
          "address": "0xe319004b0c05edbb59b45b4f791f051fdcc41457",
          "topics": [
            "0xddf252ad1be2c89b69c2b068fc378daa952ba7f163c4a11628f55a4df523b3ef",
            "0x0000000000000000000000000000000000000000000000000000000000000000",
            "0x000000000000000000000000f8a8f8bb42c680fd5c1eed2d1c5d638e2c4f4b78",
            "0x0000000000000000000000000000000000000000000000000000000000000001"
          ],
          "data": "0x",
          "blockHash": "0xf3a4b5e154284f5a6678cd11b7ef244f6bc875833abd178208b258c56f069308",
          "blockNumber": "0x8a3bad",
          "transactionHash": "0x79e50119a4fb974d8e7278811b86b35923b2e739c6a05e8ec47140ae6d006ec6",
          "transactionIndex": "0xa0",
          "logIndex": "0x1a1",
          "removed": false
        }
      ],
      "logsBloom": "0x02000000000000000000000000000000000000000000000000000000000000000000000000000000000000000000000000000000000000000000000000050000000020000000000000000008000000000000000000040000002000000000000000000000020000000000000000000840000000000000000000000010000000000000000000000000000000000000000000000000000000000020000000000000000000000000000004000000000000008000000000000000000000000000000000000002000000000400080000000000000000000000000000000000000060000000000000000000000000000000000000020000020000000000000000000000",
      "type": "0x2",
      "transactionHash": "0x79e50119a4fb974d8e7278811b86b35923b2e739c6a05e8ec47140ae6d006ec6",
      "transactionIndex": "0xa0",
      "blockHash": "0xf3a4b5e154284f5a6678cd11b7ef244f6bc875833abd178208b258c56f069308",
      "blockNumber": "0x8a3bad",
      "gasUsed": "0x20bae",
      "effectiveGasPrice": "0xdf5b99f",
      "from": "0xf8a8f8bb42c680fd5c1eed2d1c5d638e2c4f4b78",
      "to": "0xf66ba6b038fbf88ecd004cebf2c1d4598dacfc45",
      "contractAddress": null
    }
  ],
  "libraries": [],
  "pending": [],
  "returns": {},
  "timestamp": 1756107386,
  "chain": 11155111,
  "commit": "b6bf820"
}